{
  "_format": "hh-sol-artifact-1",
  "contractName": "SuperPlace",
  "sourceName": "contracts/SuperPlace.sol",
  "abi": [
    {
      "inputs": [
        {
          "internalType": "uint256",
          "name": "",
          "type": "uint256"
        },
        {
          "internalType": "uint256",
          "name": "",
          "type": "uint256"
        }
      ],
      "name": "canvas",
      "outputs": [
        {
          "internalType": "uint8",
          "name": "",
          "type": "uint8"
        }
      ],
      "stateMutability": "view",
      "type": "function"
    },
    {
      "inputs": [],
      "name": "currentRound",
      "outputs": [
        {
          "internalType": "uint256",
          "name": "",
          "type": "uint256"
        }
      ],
      "stateMutability": "view",
      "type": "function"
    },
    {
      "inputs": [
        {
          "internalType": "address",
          "name": "user",
          "type": "address"
        },
        {
          "internalType": "uint8",
          "name": "x",
          "type": "uint8"
        },
        {
          "internalType": "uint8",
          "name": "y",
          "type": "uint8"
        },
        {
          "internalType": "uint8",
          "name": "color",
          "type": "uint8"
        }
      ],
      "name": "draw",
      "outputs": [],
      "stateMutability": "nonpayable",
      "type": "function"
    },
    {
      "inputs": [],
      "name": "getCurrentBlockInfo",
      "outputs": [
        {
          "internalType": "uint256",
          "name": "",
          "type": "uint256"
        },
        {
          "internalType": "uint256",
          "name": "",
          "type": "uint256"
        }
      ],
      "stateMutability": "view",
      "type": "function"
    }
  ],
  "bytecode": "0x608060405234801561001057600080fd5b5061064d806100206000396000f3fe608060405234801561001057600080fd5b506004361061004c5760003560e01c80638a19c8bc146100515780638c9a2c441461006f578063ae0817871461008b578063c99cee2f146100bb575b600080fd5b6100596100da565b604051610066919061032e565b60405180910390f35b610089600480360381019061008491906103e5565b6100e1565b005b6100a560048036038101906100a09190610478565b6102bd565b6040516100b291906104c7565b60405180910390f35b6100c36102fc565b6040516100d19291906104e2565b60405180910390f35b6103215481565b6000605a436100f0919061053a565b905080610321541461015a578160018560ff1660c881106101145761011361056b565b5b600402018460ff166064811061012d5761012c61056b565b5b602091828204019190066101000a81548160ff021916908360ff16021790555080610321819055506102b6565b6000808673ffffffffffffffffffffffffffffffffffffffff1673ffffffffffffffffffffffffffffffffffffffff168152602001908152602001600020600061032154815260200190815260200160002060009054906101000a900460ff166101f9576040517f08c379a00000000000000000000000000000000000000000000000000000000081526004016101f0906105f7565b60405180910390fd5b8160018560ff1660c881106102115761021061056b565b5b600402018460ff166064811061022a5761022961056b565b5b602091828204019190066101000a81548160ff021916908360ff16021790555060016000808773ffffffffffffffffffffffffffffffffffffffff1673ffffffffffffffffffffffffffffffffffffffff168152602001908152602001600020600061032154815260200190815260200160002060006101000a81548160ff0219169083151502179055505b5050505050565b60018260c881106102cd57600080fd5b6004020181606481106102df57600080fd5b60209182820401919006915091509054906101000a900460ff1681565b6000806000439050600042905081819350935050509091565b6000819050919050565b61032881610315565b82525050565b6000602082019050610343600083018461031f565b92915050565b600080fd5b600073ffffffffffffffffffffffffffffffffffffffff82169050919050565b60006103798261034e565b9050919050565b6103898161036e565b811461039457600080fd5b50565b6000813590506103a681610380565b92915050565b600060ff82169050919050565b6103c2816103ac565b81146103cd57600080fd5b50565b6000813590506103df816103b9565b92915050565b600080600080608085870312156103ff576103fe610349565b5b600061040d87828801610397565b945050602061041e878288016103d0565b935050604061042f878288016103d0565b9250506060610440878288016103d0565b91505092959194509250565b61045581610315565b811461046057600080fd5b50565b6000813590506104728161044c565b92915050565b6000806040838503121561048f5761048e610349565b5b600061049d85828601610463565b92505060206104ae85828601610463565b9150509250929050565b6104c1816103ac565b82525050565b60006020820190506104dc60008301846104b8565b92915050565b60006040820190506104f7600083018561031f565b610504602083018461031f565b9392505050565b7f4e487b7100000000000000000000000000000000000000000000000000000000600052601260045260246000fd5b600061054582610315565b915061055083610315565b9250826105605761055f61050b565b5b828204905092915050565b7f4e487b7100000000000000000000000000000000000000000000000000000000600052603260045260246000fd5b600082825260208201905092915050565b7f596f752063616e206f6e6c792064726177206f6e636520696e20726f756e6400600082015250565b60006105e1601f8361059a565b91506105ec826105ab565b602082019050919050565b60006020820190508181036000830152610610816105d4565b905091905056fea264697066735822122074600c91c9760907d1e76fb16761edb2193d5a79bef549ec4ba951a81f58c3c764736f6c63430008130033",
  "linkReferences": {},
  "deployedLinkReferences": {}
}