{
  "_format": "hh-sol-artifact-1",
  "contractName": "superPlaceSender",
  "sourceName": "contracts/SuperPlaceSender.sol",
  "abi": [
    {
      "inputs": [
        {
          "internalType": "address",
          "name": "_opGoerliRecipient",
          "type": "address"
        },
        {
          "internalType": "address",
          "name": "_mailbox",
          "type": "address"
        },
        {
          "internalType": "address",
          "name": "_interchainGasPaymaster",
          "type": "address"
        }
      ],
      "stateMutability": "nonpayable",
      "type": "constructor"
    },
    {
      "inputs": [],
      "name": "mailbox",
      "outputs": [
        {
          "internalType": "address",
          "name": "",
          "type": "address"
        }
      ],
      "stateMutability": "view",
      "type": "function"
    },
    {
      "inputs": [],
      "name": "opGoerliRecipient",
      "outputs": [
        {
          "internalType": "address",
          "name": "",
          "type": "address"
        }
      ],
      "stateMutability": "view",
      "type": "function"
    },
    {
      "inputs": [],
      "name": "quoteGasPayment",
      "outputs": [
        {
          "internalType": "uint256",
          "name": "",
          "type": "uint256"
        }
      ],
      "stateMutability": "view",
      "type": "function"
    },
    {
      "inputs": [
        {
          "components": [
            {
              "internalType": "address",
              "name": "signal",
              "type": "address"
            },
            {
              "internalType": "uint256",
              "name": "root",
              "type": "uint256"
            },
            {
              "internalType": "uint256",
              "name": "nullifierHash",
              "type": "uint256"
            },
            {
              "internalType": "uint256[8]",
              "name": "proof",
              "type": "uint256[8]"
            },
            {
              "internalType": "uint8",
              "name": "x",
              "type": "uint8"
            },
            {
              "internalType": "uint8",
              "name": "y",
              "type": "uint8"
            },
            {
              "internalType": "string",
              "name": "color",
              "type": "string"
            }
          ],
          "internalType": "struct PlaceStruct",
          "name": "_place",
          "type": "tuple"
        }
      ],
      "name": "sendAndPayForMessage",
      "outputs": [],
      "stateMutability": "payable",
      "type": "function"
    },
    {
      "inputs": [
        {
          "components": [
            {
              "internalType": "address",
              "name": "signal",
              "type": "address"
            },
            {
              "internalType": "uint256",
              "name": "root",
              "type": "uint256"
            },
            {
              "internalType": "uint256",
              "name": "nullifierHash",
              "type": "uint256"
            },
            {
              "internalType": "uint256[8]",
              "name": "proof",
              "type": "uint256[8]"
            },
            {
              "internalType": "uint8",
              "name": "x",
              "type": "uint8"
            },
            {
              "internalType": "uint8",
              "name": "y",
              "type": "uint8"
            },
            {
              "internalType": "string",
              "name": "color",
              "type": "string"
            }
          ],
          "internalType": "struct PlaceStruct",
          "name": "_place",
          "type": "tuple"
        }
      ],
      "name": "structToBytesEncoded",
      "outputs": [
        {
          "internalType": "bytes",
          "name": "",
          "type": "bytes"
        }
      ],
      "stateMutability": "pure",
      "type": "function"
    }
  ],
  "bytecode": "0x608060405234801561001057600080fd5b50604051610c48380380610c488339818101604052810190610032919061015f565b826000806101000a81548173ffffffffffffffffffffffffffffffffffffffff021916908373ffffffffffffffffffffffffffffffffffffffff16021790555081600160006101000a81548173ffffffffffffffffffffffffffffffffffffffff021916908373ffffffffffffffffffffffffffffffffffffffff16021790555080600260006101000a81548173ffffffffffffffffffffffffffffffffffffffff021916908373ffffffffffffffffffffffffffffffffffffffff1602179055505050506101b2565b600080fd5b600073ffffffffffffffffffffffffffffffffffffffff82169050919050565b600061012c82610101565b9050919050565b61013c81610121565b811461014757600080fd5b50565b60008151905061015981610133565b92915050565b600080600060608486031215610178576101776100fc565b5b60006101868682870161014a565b93505060206101978682870161014a565b92505060406101a88682870161014a565b9150509250925092565b610a87806101c16000396000f3fe60806040526004361061004a5760003560e01c8063063969561461004f57806343bf14011461008c57806344ac268c146100b7578063d01c09db146100e2578063d5438eae146100fe575b600080fd5b34801561005b57600080fd5b506100766004803603810190610071919061041c565b610129565b60405161008391906104f5565b60405180910390f35b34801561009857600080fd5b506100a1610158565b6040516100ae9190610558565b60405180910390f35b3480156100c357600080fd5b506100cc61017c565b6040516100d9919061058c565b60405180910390f35b6100fc60048036038101906100f7919061041c565b61022a565b005b34801561010a57600080fd5b506101136103a4565b6040516101209190610558565b60405180910390f35b606060008260405160200161013e919061086b565b604051602081830303815290604052905080915050919050565b60008054906101000a900473ffffffffffffffffffffffffffffffffffffffff1681565b600080600260009054906101000a900473ffffffffffffffffffffffffffffffffffffffff1673ffffffffffffffffffffffffffffffffffffffff1663a69297936101a46127106040518363ffffffff1660e01b81526004016101e09291906108f1565b602060405180830381865afa1580156101fd573d6000803e3d6000fd5b505050506040513d601f19601f82011682018060405250810190610221919061092f565b90508091505090565b600061023582610129565b90506000600160009054906101000a900473ffffffffffffffffffffffffffffffffffffffff1673ffffffffffffffffffffffffffffffffffffffff1663fa31de016101a46102a360008054906101000a900473ffffffffffffffffffffffffffffffffffffffff166103ca565b856040518463ffffffff1660e01b81526004016102c293929190610975565b6020604051808303816000875af11580156102e1573d6000803e3d6000fd5b505050506040513d601f19601f8201168201806040525081019061030591906109df565b9050600260009054906101000a900473ffffffffffffffffffffffffffffffffffffffff1673ffffffffffffffffffffffffffffffffffffffff166311bf2c1834836101a4612710336040518663ffffffff1660e01b815260040161036d9493929190610a0c565b6000604051808303818588803b15801561038657600080fd5b505af115801561039a573d6000803e3d6000fd5b5050505050505050565b600160009054906101000a900473ffffffffffffffffffffffffffffffffffffffff1681565b60008173ffffffffffffffffffffffffffffffffffffffff1660001b9050919050565b600080fd5b600080fd5b600080fd5b60006101c08284031215610413576104126103f7565b5b81905092915050565b600060208284031215610432576104316103ed565b5b600082013567ffffffffffffffff8111156104505761044f6103f2565b5b61045c848285016103fc565b91505092915050565b600081519050919050565b600082825260208201905092915050565b60005b8381101561049f578082015181840152602081019050610484565b60008484015250505050565b6000601f19601f8301169050919050565b60006104c782610465565b6104d18185610470565b93506104e1818560208601610481565b6104ea816104ab565b840191505092915050565b6000602082019050818103600083015261050f81846104bc565b905092915050565b600073ffffffffffffffffffffffffffffffffffffffff82169050919050565b600061054282610517565b9050919050565b61055281610537565b82525050565b600060208201905061056d6000830184610549565b92915050565b6000819050919050565b61058681610573565b82525050565b60006020820190506105a1600083018461057d565b92915050565b6105b081610537565b81146105bb57600080fd5b50565b6000813590506105cd816105a7565b92915050565b60006105e260208401846105be565b905092915050565b6105f381610537565b82525050565b61060281610573565b811461060d57600080fd5b50565b60008135905061061f816105f9565b92915050565b60006106346020840184610610565b905092915050565b61064581610573565b82525050565b600082905092915050565b82818337505050565b61066c6101008383610656565b5050565b600060ff82169050919050565b61068681610670565b811461069157600080fd5b50565b6000813590506106a38161067d565b92915050565b60006106b86020840184610694565b905092915050565b6106c981610670565b82525050565b600080fd5b600080fd5b600080fd5b600080833560016020038436030381126106fb576106fa6106d9565b5b83810192508235915060208301925067ffffffffffffffff821115610723576107226106cf565b5b600182023603831315610739576107386106d4565b5b509250929050565b600082825260208201905092915050565b82818337600083830152505050565b600061076d8385610741565b935061077a838584610752565b610783836104ab565b840190509392505050565b60006101c083016107a260008401846105d3565b6107af60008601826105ea565b506107bd6020840184610625565b6107ca602086018261063c565b506107d86040840184610625565b6107e5604086018261063c565b506107f3606084018461064b565b610800606086018261065f565b5061080f6101608401846106a9565b61081d6101608601826106c0565b5061082c6101808401846106a9565b61083a6101808601826106c0565b506108496101a08401846106de565b8583036101a087015261085d838284610761565b925050508091505092915050565b60006020820190508181036000830152610885818461078e565b905092915050565b600063ffffffff82169050919050565b6108a68161088d565b82525050565b6000819050919050565b6000819050919050565b60006108db6108d66108d1846108ac565b6108b6565b610573565b9050919050565b6108eb816108c0565b82525050565b6000604082019050610906600083018561089d565b61091360208301846108e2565b9392505050565b600081519050610929816105f9565b92915050565b600060208284031215610945576109446103ed565b5b60006109538482850161091a565b91505092915050565b6000819050919050565b61096f8161095c565b82525050565b600060608201905061098a600083018661089d565b6109976020830185610966565b81810360408301526109a981846104bc565b9050949350505050565b6109bc8161095c565b81146109c757600080fd5b50565b6000815190506109d9816109b3565b92915050565b6000602082840312156109f5576109f46103ed565b5b6000610a03848285016109ca565b91505092915050565b6000608082019050610a216000830187610966565b610a2e602083018661089d565b610a3b60408301856108e2565b610a486060830184610549565b9594505050505056fea26469706673582212202332ef762d6c0a9ae279425e991f4200fe8cb257c3e93754815269ba18a8428664736f6c63430008130033",
  "linkReferences": {},
  "deployedLinkReferences": {}
}