{
  "_format": "hh-sol-artifact-1",
  "contractName": "superPlaceSender",
  "sourceName": "contracts/SuperPlaceSender.sol",
  "abi": [
    {
      "inputs": [
        {
          "internalType": "address",
          "name": "_opGoerliRecipient",
          "type": "address"
        },
        {
          "internalType": "address",
          "name": "_mailbox",
          "type": "address"
        },
        {
          "internalType": "address",
          "name": "_interchainGasPaymaster",
          "type": "address"
        }
      ],
      "stateMutability": "nonpayable",
      "type": "constructor"
    },
    {
      "inputs": [],
      "name": "mailbox",
      "outputs": [
        {
          "internalType": "address",
          "name": "",
          "type": "address"
        }
      ],
      "stateMutability": "view",
      "type": "function"
    },
    {
      "inputs": [],
      "name": "opGoerliRecipient",
      "outputs": [
        {
          "internalType": "address",
          "name": "",
          "type": "address"
        }
      ],
      "stateMutability": "view",
      "type": "function"
    },
    {
      "inputs": [],
      "name": "quoteGasPayment",
      "outputs": [
        {
          "internalType": "uint256",
          "name": "",
          "type": "uint256"
        }
      ],
      "stateMutability": "view",
      "type": "function"
    },
    {
      "inputs": [
        {
          "components": [
            {
              "internalType": "address",
              "name": "signal",
              "type": "address"
            },
            {
              "internalType": "uint256",
              "name": "root",
              "type": "uint256"
            },
            {
              "internalType": "uint256",
              "name": "nullifierHash",
              "type": "uint256"
            },
            {
              "internalType": "uint256[8]",
              "name": "proof",
              "type": "uint256[8]"
            },
            {
              "internalType": "uint8",
              "name": "x",
              "type": "uint8"
            },
            {
              "internalType": "uint8",
              "name": "y",
              "type": "uint8"
            },
            {
              "internalType": "string",
              "name": "color",
              "type": "string"
            }
          ],
          "internalType": "struct PlaceStruct",
          "name": "_place",
          "type": "tuple"
        }
      ],
      "name": "sendAndPayForMessage",
      "outputs": [],
      "stateMutability": "payable",
      "type": "function"
    },
    {
      "inputs": [
        {
          "components": [
            {
              "internalType": "address",
              "name": "signal",
              "type": "address"
            },
            {
              "internalType": "uint256",
              "name": "root",
              "type": "uint256"
            },
            {
              "internalType": "uint256",
              "name": "nullifierHash",
              "type": "uint256"
            },
            {
              "internalType": "uint256[8]",
              "name": "proof",
              "type": "uint256[8]"
            },
            {
              "internalType": "uint8",
              "name": "x",
              "type": "uint8"
            },
            {
              "internalType": "uint8",
              "name": "y",
              "type": "uint8"
            },
            {
              "internalType": "string",
              "name": "color",
              "type": "string"
            }
          ],
          "internalType": "struct PlaceStruct",
          "name": "_place",
          "type": "tuple"
        }
      ],
      "name": "structToBytesEncoded",
      "outputs": [
        {
          "internalType": "bytes",
          "name": "",
          "type": "bytes"
        }
      ],
      "stateMutability": "pure",
      "type": "function"
    }
  ],
  "bytecode": "0x608060405234801561001057600080fd5b50604051610c4a380380610c4a8339818101604052810190610032919061015f565b826000806101000a81548173ffffffffffffffffffffffffffffffffffffffff021916908373ffffffffffffffffffffffffffffffffffffffff16021790555081600160006101000a81548173ffffffffffffffffffffffffffffffffffffffff021916908373ffffffffffffffffffffffffffffffffffffffff16021790555080600260006101000a81548173ffffffffffffffffffffffffffffffffffffffff021916908373ffffffffffffffffffffffffffffffffffffffff1602179055505050506101b2565b600080fd5b600073ffffffffffffffffffffffffffffffffffffffff82169050919050565b600061012c82610101565b9050919050565b61013c81610121565b811461014757600080fd5b50565b60008151905061015981610133565b92915050565b600080600060608486031215610178576101776100fc565b5b60006101868682870161014a565b93505060206101978682870161014a565b92505060406101a88682870161014a565b9150509250925092565b610a89806101c16000396000f3fe60806040526004361061004a5760003560e01c8063063969561461004f57806343bf14011461008c57806344ac268c146100b7578063d01c09db146100e2578063d5438eae146100fe575b600080fd5b34801561005b57600080fd5b506100766004803603810190610071919061041e565b610129565b60405161008391906104f7565b60405180910390f35b34801561009857600080fd5b506100a1610158565b6040516100ae919061055a565b60405180910390f35b3480156100c357600080fd5b506100cc61017c565b6040516100d9919061058e565b60405180910390f35b6100fc60048036038101906100f7919061041e565b61022b565b005b34801561010a57600080fd5b506101136103a6565b604051610120919061055a565b60405180910390f35b606060008260405160200161013e919061086d565b604051602081830303815290604052905080915050919050565b60008054906101000a900473ffffffffffffffffffffffffffffffffffffffff1681565b600080600260009054906101000a900473ffffffffffffffffffffffffffffffffffffffff1673ffffffffffffffffffffffffffffffffffffffff1663a69297936101a4620864706040518363ffffffff1660e01b81526004016101e19291906108f3565b602060405180830381865afa1580156101fe573d6000803e3d6000fd5b505050506040513d601f19601f820116820180604052508101906102229190610931565b90508091505090565b600061023682610129565b90506000600160009054906101000a900473ffffffffffffffffffffffffffffffffffffffff1673ffffffffffffffffffffffffffffffffffffffff1663fa31de016101a46102a460008054906101000a900473ffffffffffffffffffffffffffffffffffffffff166103cc565b856040518463ffffffff1660e01b81526004016102c393929190610977565b6020604051808303816000875af11580156102e2573d6000803e3d6000fd5b505050506040513d601f19601f8201168201806040525081019061030691906109e1565b9050600260009054906101000a900473ffffffffffffffffffffffffffffffffffffffff1673ffffffffffffffffffffffffffffffffffffffff166311bf2c1834836101a462086470336040518663ffffffff1660e01b815260040161036f9493929190610a0e565b6000604051808303818588803b15801561038857600080fd5b505af115801561039c573d6000803e3d6000fd5b5050505050505050565b600160009054906101000a900473ffffffffffffffffffffffffffffffffffffffff1681565b60008173ffffffffffffffffffffffffffffffffffffffff1660001b9050919050565b600080fd5b600080fd5b600080fd5b60006101c08284031215610415576104146103f9565b5b81905092915050565b600060208284031215610434576104336103ef565b5b600082013567ffffffffffffffff811115610452576104516103f4565b5b61045e848285016103fe565b91505092915050565b600081519050919050565b600082825260208201905092915050565b60005b838110156104a1578082015181840152602081019050610486565b60008484015250505050565b6000601f19601f8301169050919050565b60006104c982610467565b6104d38185610472565b93506104e3818560208601610483565b6104ec816104ad565b840191505092915050565b6000602082019050818103600083015261051181846104be565b905092915050565b600073ffffffffffffffffffffffffffffffffffffffff82169050919050565b600061054482610519565b9050919050565b61055481610539565b82525050565b600060208201905061056f600083018461054b565b92915050565b6000819050919050565b61058881610575565b82525050565b60006020820190506105a3600083018461057f565b92915050565b6105b281610539565b81146105bd57600080fd5b50565b6000813590506105cf816105a9565b92915050565b60006105e460208401846105c0565b905092915050565b6105f581610539565b82525050565b61060481610575565b811461060f57600080fd5b50565b600081359050610621816105fb565b92915050565b60006106366020840184610612565b905092915050565b61064781610575565b82525050565b600082905092915050565b82818337505050565b61066e6101008383610658565b5050565b600060ff82169050919050565b61068881610672565b811461069357600080fd5b50565b6000813590506106a58161067f565b92915050565b60006106ba6020840184610696565b905092915050565b6106cb81610672565b82525050565b600080fd5b600080fd5b600080fd5b600080833560016020038436030381126106fd576106fc6106db565b5b83810192508235915060208301925067ffffffffffffffff821115610725576107246106d1565b5b60018202360383131561073b5761073a6106d6565b5b509250929050565b600082825260208201905092915050565b82818337600083830152505050565b600061076f8385610743565b935061077c838584610754565b610785836104ad565b840190509392505050565b60006101c083016107a460008401846105d5565b6107b160008601826105ec565b506107bf6020840184610627565b6107cc602086018261063e565b506107da6040840184610627565b6107e7604086018261063e565b506107f5606084018461064d565b6108026060860182610661565b506108116101608401846106ab565b61081f6101608601826106c2565b5061082e6101808401846106ab565b61083c6101808601826106c2565b5061084b6101a08401846106e0565b8583036101a087015261085f838284610763565b925050508091505092915050565b600060208201905081810360008301526108878184610790565b905092915050565b600063ffffffff82169050919050565b6108a88161088f565b82525050565b6000819050919050565b6000819050919050565b60006108dd6108d86108d3846108ae565b6108b8565b610575565b9050919050565b6108ed816108c2565b82525050565b6000604082019050610908600083018561089f565b61091560208301846108e4565b9392505050565b60008151905061092b816105fb565b92915050565b600060208284031215610947576109466103ef565b5b60006109558482850161091c565b91505092915050565b6000819050919050565b6109718161095e565b82525050565b600060608201905061098c600083018661089f565b6109996020830185610968565b81810360408301526109ab81846104be565b9050949350505050565b6109be8161095e565b81146109c957600080fd5b50565b6000815190506109db816109b5565b92915050565b6000602082840312156109f7576109f66103ef565b5b6000610a05848285016109cc565b91505092915050565b6000608082019050610a236000830187610968565b610a30602083018661089f565b610a3d60408301856108e4565b610a4a606083018461054b565b9594505050505056fea264697066735822122072d68f87c5be87788667457822cfda0de2ca5b5c178cbb8ada42154e3205912364736f6c63430008130033",
  "linkReferences": {},
  "deployedLinkReferences": {}
}