{
  "_format": "hh-sol-artifact-1",
  "contractName": "SuperPlace",
  "sourceName": "contracts/SuperPlace.sol",
  "abi": [
    {
      "inputs": [
        {
          "internalType": "contract IWorldID",
          "name": "_worldId",
          "type": "address"
        },
        {
          "internalType": "string",
          "name": "_appId",
          "type": "string"
        },
        {
          "internalType": "string",
          "name": "_actionId",
          "type": "string"
        }
      ],
      "stateMutability": "nonpayable",
      "type": "constructor"
    },
    {
      "inputs": [],
      "name": "InvalidNullifier",
      "type": "error"
    },
    {
      "inputs": [
        {
          "internalType": "uint256",
          "name": "",
          "type": "uint256"
        },
        {
          "internalType": "uint256",
          "name": "",
          "type": "uint256"
        }
      ],
      "name": "canvas",
      "outputs": [
        {
          "internalType": "uint8",
          "name": "",
          "type": "uint8"
        }
      ],
      "stateMutability": "view",
      "type": "function"
    },
    {
      "inputs": [],
      "name": "currentRound",
      "outputs": [
        {
          "internalType": "uint256",
          "name": "",
          "type": "uint256"
        }
      ],
      "stateMutability": "view",
      "type": "function"
    },
    {
      "inputs": [
        {
          "internalType": "address",
          "name": "signal",
          "type": "address"
        },
        {
          "internalType": "uint256",
          "name": "root",
          "type": "uint256"
        },
        {
          "internalType": "uint256",
          "name": "nullifierHash",
          "type": "uint256"
        },
        {
          "internalType": "uint256[8]",
          "name": "proof",
          "type": "uint256[8]"
        },
        {
          "internalType": "uint8",
          "name": "x",
          "type": "uint8"
        },
        {
          "internalType": "uint8",
          "name": "y",
          "type": "uint8"
        },
        {
          "internalType": "uint8",
          "name": "color",
          "type": "uint8"
        }
      ],
      "name": "draw",
      "outputs": [],
      "stateMutability": "nonpayable",
      "type": "function"
    },
    {
      "inputs": [],
      "name": "getCurrentBlockInfo",
      "outputs": [
        {
          "internalType": "uint256",
          "name": "",
          "type": "uint256"
        },
        {
          "internalType": "uint256",
          "name": "",
          "type": "uint256"
        }
      ],
      "stateMutability": "view",
      "type": "function"
    }
  ],
  "bytecode": "0x60e0604052600160c0908152503480156200001957600080fd5b5060405162000d3938038062000d3983398181016040528101906200003f91906200032d565b8273ffffffffffffffffffffffffffffffffffffffff1660808173ffffffffffffffffffffffffffffffffffffffff1681525050620000d8620000a9836040516020016200008e919062000414565b604051602081830303815290604052620000e860201b60201c565b82604051602001620000bd9291906200045c565b604051602081830303815290604052620000e860201b60201c565b60a08181525050505050620004ee565b6000600882604051602001620000ff9190620004d5565b6040516020818303038152906040528051906020012060001c901c9050919050565b6000604051905090565b600080fd5b600080fd5b600073ffffffffffffffffffffffffffffffffffffffff82169050919050565b6000620001628262000135565b9050919050565b6000620001768262000155565b9050919050565b620001888162000169565b81146200019457600080fd5b50565b600081519050620001a8816200017d565b92915050565b600080fd5b600080fd5b6000601f19601f8301169050919050565b7f4e487b7100000000000000000000000000000000000000000000000000000000600052604160045260246000fd5b6200020382620001b8565b810181811067ffffffffffffffff82111715620002255762000224620001c9565b5b80604052505050565b60006200023a62000121565b9050620002488282620001f8565b919050565b600067ffffffffffffffff8211156200026b576200026a620001c9565b5b6200027682620001b8565b9050602081019050919050565b60005b83811015620002a357808201518184015260208101905062000286565b60008484015250505050565b6000620002c6620002c0846200024d565b6200022e565b905082815260208101848484011115620002e557620002e4620001b3565b5b620002f284828562000283565b509392505050565b600082601f830112620003125762000311620001ae565b5b815162000324848260208601620002af565b91505092915050565b6000806000606084860312156200034957620003486200012b565b5b6000620003598682870162000197565b935050602084015167ffffffffffffffff8111156200037d576200037c62000130565b5b6200038b86828701620002fa565b925050604084015167ffffffffffffffff811115620003af57620003ae62000130565b5b620003bd86828701620002fa565b9150509250925092565b600081519050919050565b600081905092915050565b6000620003ea82620003c7565b620003f68185620003d2565b93506200040881856020860162000283565b80840191505092915050565b6000620004228284620003dd565b915081905092915050565b6000819050919050565b6000819050919050565b6200045662000450826200042d565b62000437565b82525050565b60006200046a828562000441565b6020820191506200047c8284620003dd565b91508190509392505050565b600081519050919050565b600081905092915050565b6000620004ab8262000488565b620004b7818562000493565b9350620004c981856020860162000283565b80840191505092915050565b6000620004e382846200049e565b915081905092915050565b60805160a05160c05161081b6200051e60003960006101af015260006101f901526000610172015261081b6000f3fe608060405234801561001057600080fd5b506004361061004c5760003560e01c80638a19c8bc146100515780639b1324fe1461006f578063ae0817871461008b578063c99cee2f146100bb575b600080fd5b6100596100da565b60405161006691906103ac565b60405180910390f35b610089600480360381019061008491906104b6565b6100e1565b005b6100a560048036038101906100a0919061055c565b610304565b6040516100b291906105ab565b60405180910390f35b6100c3610343565b6040516100d19291906105c6565b60405180910390f35b6103215481565b6000605a436100f0919061061e565b90508061032154146101055780610321819055505b600080878152602001908152602001600020600061032154815260200190815260200160002060009054906101000a900460ff1615610170576040517f5d904cb200000000000000000000000000000000000000000000000000000000815260040160405180910390fd5b7f000000000000000000000000000000000000000000000000000000000000000073ffffffffffffffffffffffffffffffffffffffff16633bc778e3887f00000000000000000000000000000000000000000000000000000000000000006101f68c6040516020016101e29190610697565b60405160208183030381529060405261035c565b8a7f00000000000000000000000000000000000000000000000000000000000000008b6040518763ffffffff1660e01b815260040161023a969594939291906106cc565b60006040518083038186803b15801561025257600080fd5b505afa158015610266573d6000803e3d6000fd5b505050506001600080888152602001908152602001600020600061032154815260200190815260200160002060006101000a81548160ff0219169083151502179055508160018560ff1660c881106102c1576102c061072e565b5b600402018460ff16606481106102da576102d961072e565b5b602091828204019190066101000a81548160ff021916908360ff1602179055505050505050505050565b60018260c8811061031457600080fd5b60040201816064811061032657600080fd5b60209182820401919006915091509054906101000a900460ff1681565b6000806000439050600042905081819350935050509091565b600060088260405160200161037191906107ce565b6040516020818303038152906040528051906020012060001c901c9050919050565b6000819050919050565b6103a681610393565b82525050565b60006020820190506103c1600083018461039d565b92915050565b600080fd5b600073ffffffffffffffffffffffffffffffffffffffff82169050919050565b60006103f7826103cc565b9050919050565b610407816103ec565b811461041257600080fd5b50565b600081359050610424816103fe565b92915050565b61043381610393565b811461043e57600080fd5b50565b6000813590506104508161042a565b92915050565b600080fd5b60008190508260206008028201111561047757610476610456565b5b92915050565b600060ff82169050919050565b6104938161047d565b811461049e57600080fd5b50565b6000813590506104b08161048a565b92915050565b60008060008060008060006101c0888a0312156104d6576104d56103c7565b5b60006104e48a828b01610415565b97505060206104f58a828b01610441565b96505060406105068a828b01610441565b95505060606105178a828b0161045b565b9450506101606105298a828b016104a1565b93505061018061053b8a828b016104a1565b9250506101a061054d8a828b016104a1565b91505092959891949750929550565b60008060408385031215610573576105726103c7565b5b600061058185828601610441565b925050602061059285828601610441565b9150509250929050565b6105a58161047d565b82525050565b60006020820190506105c0600083018461059c565b92915050565b60006040820190506105db600083018561039d565b6105e8602083018461039d565b9392505050565b7f4e487b7100000000000000000000000000000000000000000000000000000000600052601260045260246000fd5b600061062982610393565b915061063483610393565b925082610644576106436105ef565b5b828204905092915050565b60008160601b9050919050565b60006106678261064f565b9050919050565b60006106798261065c565b9050919050565b61069161068c826103ec565b61066e565b82525050565b60006106a38284610680565b60148201915081905092915050565b82818337505050565b6106c861010083836106b2565b5050565b60006101a0820190506106e2600083018961039d565b6106ef602083018861039d565b6106fc604083018761039d565b610709606083018661039d565b610716608083018561039d565b61072360a08301846106bb565b979650505050505050565b7f4e487b7100000000000000000000000000000000000000000000000000000000600052603260045260246000fd5b600081519050919050565b600081905092915050565b60005b83811015610791578082015181840152602081019050610776565b60008484015250505050565b60006107a88261075d565b6107b28185610768565b93506107c2818560208601610773565b80840191505092915050565b60006107da828461079d565b91508190509291505056fea2646970667358221220467ffcfea8720fcf4d6e28a4ca3d5dea6bc4d840bd40420e108fba850790b09264736f6c63430008130033",
  "linkReferences": {},
  "deployedLinkReferences": {}
}