{
  "_format": "hh-sol-artifact-1",
  "contractName": "SuperPlace",
  "sourceName": "contracts/SuperPlace.sol",
  "abi": [
    {
      "inputs": [
        {
          "internalType": "contract IWorldIDGroups",
          "name": "_worldId",
          "type": "address"
        },
        {
          "internalType": "string",
          "name": "_appId",
          "type": "string"
        },
        {
          "internalType": "string",
          "name": "_actionId",
          "type": "string"
        }
      ],
      "stateMutability": "nonpayable",
      "type": "constructor"
    },
    {
      "inputs": [],
      "name": "InvalidNullifier",
      "type": "error"
    },
    {
      "anonymous": false,
      "inputs": [
        {
          "indexed": false,
          "internalType": "address",
          "name": "user",
          "type": "address"
        },
        {
          "indexed": false,
          "internalType": "uint256",
          "name": "x",
          "type": "uint256"
        },
        {
          "indexed": false,
          "internalType": "uint256",
          "name": "y",
          "type": "uint256"
        },
        {
          "indexed": false,
          "internalType": "string",
          "name": "color",
          "type": "string"
        }
      ],
      "name": "Placed",
      "type": "event"
    },
    {
      "anonymous": false,
      "inputs": [
        {
          "indexed": false,
          "internalType": "uint32",
          "name": "origin",
          "type": "uint32"
        },
        {
          "indexed": false,
          "internalType": "address",
          "name": "sender",
          "type": "address"
        },
        {
          "indexed": false,
          "internalType": "bytes",
          "name": "body",
          "type": "bytes"
        }
      ],
      "name": "Received",
      "type": "event"
    },
    {
      "inputs": [
        {
          "internalType": "uint256",
          "name": "",
          "type": "uint256"
        },
        {
          "internalType": "uint256",
          "name": "",
          "type": "uint256"
        }
      ],
      "name": "canvas",
      "outputs": [
        {
          "internalType": "string",
          "name": "",
          "type": "string"
        }
      ],
      "stateMutability": "view",
      "type": "function"
    },
    {
      "inputs": [],
      "name": "currentRound",
      "outputs": [
        {
          "internalType": "uint256",
          "name": "",
          "type": "uint256"
        }
      ],
      "stateMutability": "view",
      "type": "function"
    },
    {
      "inputs": [],
      "name": "externalNullifier",
      "outputs": [
        {
          "internalType": "uint256",
          "name": "",
          "type": "uint256"
        }
      ],
      "stateMutability": "view",
      "type": "function"
    },
    {
      "inputs": [
        {
          "internalType": "uint8",
          "name": "x",
          "type": "uint8"
        }
      ],
      "name": "getCanvas",
      "outputs": [
        {
          "internalType": "string[200]",
          "name": "",
          "type": "string[200]"
        }
      ],
      "stateMutability": "view",
      "type": "function"
    },
    {
      "inputs": [],
      "name": "getCurrentBlockInfo",
      "outputs": [
        {
          "internalType": "uint256",
          "name": "",
          "type": "uint256"
        },
        {
          "internalType": "uint256",
          "name": "",
          "type": "uint256"
        }
      ],
      "stateMutability": "view",
      "type": "function"
    },
    {
      "inputs": [
        {
          "internalType": "uint32",
          "name": "_origin",
          "type": "uint32"
        },
        {
          "internalType": "bytes32",
          "name": "_sender",
          "type": "bytes32"
        },
        {
          "internalType": "bytes",
          "name": "_body",
          "type": "bytes"
        }
      ],
      "name": "hyperlanePlace",
      "outputs": [],
      "stateMutability": "nonpayable",
      "type": "function"
    },
    {
      "inputs": [],
      "name": "mailbox",
      "outputs": [
        {
          "internalType": "address",
          "name": "",
          "type": "address"
        }
      ],
      "stateMutability": "view",
      "type": "function"
    },
    {
      "inputs": [
        {
          "components": [
            {
              "internalType": "address",
              "name": "signal",
              "type": "address"
            },
            {
              "internalType": "uint256",
              "name": "root",
              "type": "uint256"
            },
            {
              "internalType": "uint256",
              "name": "nullifierHash",
              "type": "uint256"
            },
            {
              "internalType": "uint256[8]",
              "name": "proof",
              "type": "uint256[8]"
            },
            {
              "internalType": "uint8",
              "name": "x",
              "type": "uint8"
            },
            {
              "internalType": "uint8",
              "name": "y",
              "type": "uint8"
            },
            {
              "internalType": "string",
              "name": "color",
              "type": "string"
            }
          ],
          "internalType": "struct PlaceStruct",
          "name": "_place",
          "type": "tuple"
        }
      ],
      "name": "place",
      "outputs": [],
      "stateMutability": "nonpayable",
      "type": "function"
    }
  ],
  "bytecode": "0x60c0604052600160a09081525073cc737a94fecaec165abcf12ded095bb13f037685614e2360006101000a81548173ffffffffffffffffffffffffffffffffffffffff021916908373ffffffffffffffffffffffffffffffffffffffff1602179055503480156200006f57600080fd5b5060405162001dec38038062001dec833981810160405281019062000095919062000383565b8273ffffffffffffffffffffffffffffffffffffffff1660808173ffffffffffffffffffffffffffffffffffffffff16815250506200012e620000ff83604051602001620000e491906200046a565b6040516020818303038152906040526200013e60201b60201c565b8260405160200162000113929190620004b2565b6040516020818303038152906040526200013e60201b60201c565b614e228190555050505062000544565b60006008826040516020016200015591906200052b565b6040516020818303038152906040528051906020012060001c901c9050919050565b6000604051905090565b600080fd5b600080fd5b600073ffffffffffffffffffffffffffffffffffffffff82169050919050565b6000620001b8826200018b565b9050919050565b6000620001cc82620001ab565b9050919050565b620001de81620001bf565b8114620001ea57600080fd5b50565b600081519050620001fe81620001d3565b92915050565b600080fd5b600080fd5b6000601f19601f8301169050919050565b7f4e487b7100000000000000000000000000000000000000000000000000000000600052604160045260246000fd5b62000259826200020e565b810181811067ffffffffffffffff821117156200027b576200027a6200021f565b5b80604052505050565b60006200029062000177565b90506200029e82826200024e565b919050565b600067ffffffffffffffff821115620002c157620002c06200021f565b5b620002cc826200020e565b9050602081019050919050565b60005b83811015620002f9578082015181840152602081019050620002dc565b60008484015250505050565b60006200031c6200031684620002a3565b62000284565b9050828152602081018484840111156200033b576200033a62000209565b5b62000348848285620002d9565b509392505050565b600082601f83011262000368576200036762000204565b5b81516200037a84826020860162000305565b91505092915050565b6000806000606084860312156200039f576200039e62000181565b5b6000620003af86828701620001ed565b935050602084015167ffffffffffffffff811115620003d357620003d262000186565b5b620003e18682870162000350565b925050604084015167ffffffffffffffff81111562000405576200040462000186565b5b620004138682870162000350565b9150509250925092565b600081519050919050565b600081905092915050565b600062000440826200041d565b6200044c818562000428565b93506200045e818560208601620002d9565b80840191505092915050565b600062000478828462000433565b915081905092915050565b6000819050919050565b6000819050919050565b620004ac620004a68262000483565b6200048d565b82525050565b6000620004c0828562000497565b602082019150620004d2828462000433565b91508190509392505050565b600081519050919050565b600081905092915050565b60006200050182620004de565b6200050d8185620004e9565b93506200051f818560208601620002d9565b80840191505092915050565b6000620005398284620004f4565b915081905092915050565b60805160a0516118826200056a600039600061056c0152600061052b01526118826000f3fe608060405234801561001057600080fd5b50600436106100885760003560e01c80638a19c8bc1161005b5780638a19c8bc14610113578063ae08178714610131578063c99cee2f14610161578063d5438eae1461018057610088565b80632753313d1461008d578063558bedb4146100a9578063627cff83146100c557806370bb640f146100f5575b600080fd5b6100a760048036038101906100a29190610771565b61019e565b005b6100c360048036038101906100be9190610972565b6101b3565b005b6100df60048036038101906100da9190610a1a565b61027e565b6040516100ec9190610b7c565b60405180910390f35b6100fd610366565b60405161010a9190610bb7565b60405180910390f35b61011b61036d565b6040516101289190610bb7565b60405180910390f35b61014b60048036038101906101469190610bfe565b610374565b6040516101589190610c88565b60405180910390f35b61016961042a565b604051610177929190610caa565b60405180910390f35b610188610443565b6040516101959190610d14565b60405180910390f35b6101b0816101ab90610f90565b61046a565b50565b614e2360009054906101000a900473ffffffffffffffffffffffffffffffffffffffff1673ffffffffffffffffffffffffffffffffffffffff163373ffffffffffffffffffffffffffffffffffffffff161461020e57600080fd5b6000610219836106cc565b90507fbb8068a80970e39c505e930e385376bf8649fce97bd3eb8f4c4dfffc5e9b803384828460405161024e93929190611007565b60405180910390a160008280602001905181019061026c9190611253565b90506102778161046a565b5050505050565b610286610710565b60018260ff166064811061029d5761029c61129c565b5b60c8020160c880602002604051908101604052809291906000905b8282101561035b5783820180546102ce906112fa565b80601f01602080910402602001604051908101604052809291908181526020018280546102fa906112fa565b80156103475780601f1061031c57610100808354040283529160200191610347565b820191906000526020600020905b81548152906001019060200180831161032a57829003601f168201915b5050505050815260200190600101906102b8565b505050509050919050565b614e225481565b614e215481565b6001826064811061038457600080fd5b60c802018160c8811061039657600080fd5b016000915091505080546103a9906112fa565b80601f01602080910402602001604051908101604052809291908181526020018280546103d5906112fa565b80156104225780601f106103f757610100808354040283529160200191610422565b820191906000526020600020905b81548152906001019060200180831161040557829003601f168201915b505050505081565b6000806000439050600042905081819350935050509091565b614e2360009054906101000a900473ffffffffffffffffffffffffffffffffffffffff1681565b4260b4614e215461047b919061135a565b101561048a5742614e21819055505b600080826040015181526020019081526020016000206000614e2154815260200190815260200160002060009054906101000a900460ff16156104f9576040517f5d904cb200000000000000000000000000000000000000000000000000000000815260040160405180910390fd5b6000610527826000015160405160200161051391906113d6565b6040516020818303038152906040526106d9565b90507f000000000000000000000000000000000000000000000000000000000000000073ffffffffffffffffffffffffffffffffffffffff16633bc778e383602001517f0000000000000000000000000000000000000000000000000000000000000000848660400151614e225488606001516040518763ffffffff1660e01b81526004016105bb9695949392919061149c565b600060405180830381600087803b1580156105d557600080fd5b505af11580156105e9573d6000803e3d6000fd5b505050506001600080846040015181526020019081526020016000206000614e2154815260200190815260200160002060006101000a81548160ff0219169083151502179055508160c001516001836080015160ff16606481106106505761064f61129c565b5b60c802018360a0015160ff1660c8811061066d5761066c61129c565b5b01908161067a91906116aa565b507f5a36643dd1c4d386649993a1f3dc54d93c52df759b783c7056d447bae7c88ea0826000015183608001518460a001518560c001516040516106c094939291906117ad565b60405180910390a15050565b60008160001c9050919050565b60006008826040516020016106ee9190611835565b6040516020818303038152906040528051906020012060001c901c9050919050565b60405180611900016040528060c8905b60608152602001906001900390816107205790505090565b6000604051905090565b600080fd5b600080fd5b600080fd5b60006101c082840312156107685761076761074c565b5b81905092915050565b60006020828403121561078757610786610742565b5b600082013567ffffffffffffffff8111156107a5576107a4610747565b5b6107b184828501610751565b91505092915050565b600063ffffffff82169050919050565b6107d3816107ba565b81146107de57600080fd5b50565b6000813590506107f0816107ca565b92915050565b6000819050919050565b610809816107f6565b811461081457600080fd5b50565b60008135905061082681610800565b92915050565b600080fd5b600080fd5b6000601f19601f8301169050919050565b7f4e487b7100000000000000000000000000000000000000000000000000000000600052604160045260246000fd5b61087f82610836565b810181811067ffffffffffffffff8211171561089e5761089d610847565b5b80604052505050565b60006108b1610738565b90506108bd8282610876565b919050565b600067ffffffffffffffff8211156108dd576108dc610847565b5b6108e682610836565b9050602081019050919050565b82818337600083830152505050565b6000610915610910846108c2565b6108a7565b90508281526020810184848401111561093157610930610831565b5b61093c8482856108f3565b509392505050565b600082601f8301126109595761095861082c565b5b8135610969848260208601610902565b91505092915050565b60008060006060848603121561098b5761098a610742565b5b6000610999868287016107e1565b93505060206109aa86828701610817565b925050604084013567ffffffffffffffff8111156109cb576109ca610747565b5b6109d786828701610944565b9150509250925092565b600060ff82169050919050565b6109f7816109e1565b8114610a0257600080fd5b50565b600081359050610a14816109ee565b92915050565b600060208284031215610a3057610a2f610742565b5b6000610a3e84828501610a05565b91505092915050565b600060c89050919050565b600081905092915050565b6000819050919050565b600081519050919050565b600082825260208201905092915050565b60005b83811015610aa1578082015181840152602081019050610a86565b60008484015250505050565b6000610ab882610a67565b610ac28185610a72565b9350610ad2818560208601610a83565b610adb81610836565b840191505092915050565b6000610af28383610aad565b905092915050565b6000602082019050919050565b6000610b1282610a47565b610b1c8185610a52565b935083602082028501610b2e85610a5d565b8060005b85811015610b6a5784840389528151610b4b8582610ae6565b9450610b5683610afa565b925060208a01995050600181019050610b32565b50829750879550505050505092915050565b60006020820190508181036000830152610b968184610b07565b905092915050565b6000819050919050565b610bb181610b9e565b82525050565b6000602082019050610bcc6000830184610ba8565b92915050565b610bdb81610b9e565b8114610be657600080fd5b50565b600081359050610bf881610bd2565b92915050565b60008060408385031215610c1557610c14610742565b5b6000610c2385828601610be9565b9250506020610c3485828601610be9565b9150509250929050565b600082825260208201905092915050565b6000610c5a82610a67565b610c648185610c3e565b9350610c74818560208601610a83565b610c7d81610836565b840191505092915050565b60006020820190508181036000830152610ca28184610c4f565b905092915050565b6000604082019050610cbf6000830185610ba8565b610ccc6020830184610ba8565b9392505050565b600073ffffffffffffffffffffffffffffffffffffffff82169050919050565b6000610cfe82610cd3565b9050919050565b610d0e81610cf3565b82525050565b6000602082019050610d296000830184610d05565b92915050565b600080fd5b600080fd5b610d4281610cf3565b8114610d4d57600080fd5b50565b600081359050610d5f81610d39565b92915050565b600067ffffffffffffffff821115610d8057610d7f610847565b5b602082029050919050565b600080fd5b6000610da3610d9e84610d65565b6108a7565b90508060208402830185811115610dbd57610dbc610d8b565b5b835b81811015610de65780610dd28882610be9565b845260208401935050602081019050610dbf565b5050509392505050565b600082601f830112610e0557610e0461082c565b5b6008610e12848285610d90565b91505092915050565b600067ffffffffffffffff821115610e3657610e35610847565b5b610e3f82610836565b9050602081019050919050565b6000610e5f610e5a84610e1b565b6108a7565b905082815260208101848484011115610e7b57610e7a610831565b5b610e868482856108f3565b509392505050565b600082601f830112610ea357610ea261082c565b5b8135610eb3848260208601610e4c565b91505092915050565b60006101c08284031215610ed357610ed2610d2f565b5b610edd60e06108a7565b90506000610eed84828501610d50565b6000830152506020610f0184828501610be9565b6020830152506040610f1584828501610be9565b6040830152506060610f2984828501610df0565b606083015250610160610f3e84828501610a05565b608083015250610180610f5384828501610a05565b60a0830152506101a082013567ffffffffffffffff811115610f7857610f77610d34565b5b610f8484828501610e8e565b60c08301525092915050565b6000610f9c3683610ebc565b9050919050565b610fac816107ba565b82525050565b600081519050919050565b600082825260208201905092915050565b6000610fd982610fb2565b610fe38185610fbd565b9350610ff3818560208601610a83565b610ffc81610836565b840191505092915050565b600060608201905061101c6000830186610fa3565b6110296020830185610d05565b818103604083015261103b8184610fce565b9050949350505050565b60008151905061105481610d39565b92915050565b60008151905061106981610bd2565b92915050565b600061108261107d84610d65565b6108a7565b9050806020840283018581111561109c5761109b610d8b565b5b835b818110156110c557806110b1888261105a565b84526020840193505060208101905061109e565b5050509392505050565b600082601f8301126110e4576110e361082c565b5b60086110f184828561106f565b91505092915050565b600081519050611109816109ee565b92915050565b600061112261111d84610e1b565b6108a7565b90508281526020810184848401111561113e5761113d610831565b5b611149848285610a83565b509392505050565b600082601f8301126111665761116561082c565b5b815161117684826020860161110f565b91505092915050565b60006101c0828403121561119657611195610d2f565b5b6111a060e06108a7565b905060006111b084828501611045565b60008301525060206111c48482850161105a565b60208301525060406111d88482850161105a565b60408301525060606111ec848285016110cf565b606083015250610160611201848285016110fa565b608083015250610180611216848285016110fa565b60a0830152506101a082015167ffffffffffffffff81111561123b5761123a610d34565b5b61124784828501611151565b60c08301525092915050565b60006020828403121561126957611268610742565b5b600082015167ffffffffffffffff81111561128757611286610747565b5b6112938482850161117f565b91505092915050565b7f4e487b7100000000000000000000000000000000000000000000000000000000600052603260045260246000fd5b7f4e487b7100000000000000000000000000000000000000000000000000000000600052602260045260246000fd5b6000600282049050600182168061131257607f821691505b602082108103611325576113246112cb565b5b50919050565b7f4e487b7100000000000000000000000000000000000000000000000000000000600052601160045260246000fd5b600061136582610b9e565b915061137083610b9e565b92508282019050808211156113885761138761132b565b5b92915050565b60008160601b9050919050565b60006113a68261138e565b9050919050565b60006113b88261139b565b9050919050565b6113d06113cb82610cf3565b6113ad565b82525050565b60006113e282846113bf565b60148201915081905092915050565b600060089050919050565b600081905092915050565b6000819050919050565b61141a81610b9e565b82525050565b600061142c8383611411565b60208301905092915050565b6000602082019050919050565b61144e816113f1565b61145881846113fc565b925061146382611407565b8060005b8381101561149457815161147b8782611420565b965061148683611438565b925050600181019050611467565b505050505050565b60006101a0820190506114b26000830189610ba8565b6114bf6020830188610ba8565b6114cc6040830187610ba8565b6114d96060830186610ba8565b6114e66080830185610ba8565b6114f360a0830184611445565b979650505050505050565b60008190508160005260206000209050919050565b60006020601f8301049050919050565b600082821b905092915050565b6000600883026115607fffffffffffffffffffffffffffffffffffffffffffffffffffffffffffffffff82611523565b61156a8683611523565b95508019841693508086168417925050509392505050565b6000819050919050565b60006115a76115a261159d84610b9e565b611582565b610b9e565b9050919050565b6000819050919050565b6115c18361158c565b6115d56115cd826115ae565b848454611530565b825550505050565b600090565b6115ea6115dd565b6115f58184846115b8565b505050565b5b818110156116195761160e6000826115e2565b6001810190506115fb565b5050565b601f82111561165e5761162f816114fe565b61163884611513565b81016020851015611647578190505b61165b61165385611513565b8301826115fa565b50505b505050565b600082821c905092915050565b600061168160001984600802611663565b1980831691505092915050565b600061169a8383611670565b9150826002028217905092915050565b6116b382610a67565b67ffffffffffffffff8111156116cc576116cb610847565b5b6116d682546112fa565b6116e182828561161d565b600060209050601f8311600181146117145760008415611702578287015190505b61170c858261168e565b865550611774565b601f198416611722866114fe565b60005b8281101561174a57848901518255600182019150602085019450602081019050611725565b868310156117675784890151611763601f891682611670565b8355505b6001600288020188555050505b505050505050565b600061179761179261178d846109e1565b611582565b610b9e565b9050919050565b6117a78161177c565b82525050565b60006080820190506117c26000830187610d05565b6117cf602083018661179e565b6117dc604083018561179e565b81810360608301526117ee8184610c4f565b905095945050505050565b600081905092915050565b600061180f82610fb2565b61181981856117f9565b9350611829818560208601610a83565b80840191505092915050565b60006118418284611804565b91508190509291505056fea26469706673582212203b2a94066996728f12300c37487ff79282f2f39bad407c64e5a0128085850dba64736f6c63430008130033",
  "linkReferences": {},
  "deployedLinkReferences": {}
}