{
  "_format": "hh-sol-artifact-1",
  "contractName": "SuperPlace",
  "sourceName": "contracts/SuperPlace.sol",
  "abi": [
    {
      "inputs": [
        {
          "internalType": "contract IWorldIDGroups",
          "name": "_worldId",
          "type": "address"
        },
        {
          "internalType": "string",
          "name": "_appId",
          "type": "string"
        },
        {
          "internalType": "string",
          "name": "_actionId",
          "type": "string"
        }
      ],
      "stateMutability": "nonpayable",
      "type": "constructor"
    },
    {
      "inputs": [],
      "name": "InvalidNullifier",
      "type": "error"
    },
    {
      "inputs": [
        {
          "internalType": "uint256",
          "name": "",
          "type": "uint256"
        },
        {
          "internalType": "uint256",
          "name": "",
          "type": "uint256"
        }
      ],
      "name": "canvas",
      "outputs": [
        {
          "internalType": "uint8",
          "name": "",
          "type": "uint8"
        }
      ],
      "stateMutability": "view",
      "type": "function"
    },
    {
      "inputs": [],
      "name": "currentRound",
      "outputs": [
        {
          "internalType": "uint256",
          "name": "",
          "type": "uint256"
        }
      ],
      "stateMutability": "view",
      "type": "function"
    },
    {
      "inputs": [
        {
          "internalType": "address",
          "name": "signal",
          "type": "address"
        },
        {
          "internalType": "uint256",
          "name": "root",
          "type": "uint256"
        },
        {
          "internalType": "uint256",
          "name": "nullifierHash",
          "type": "uint256"
        },
        {
          "internalType": "uint256[8]",
          "name": "proof",
          "type": "uint256[8]"
        },
        {
          "internalType": "uint8",
          "name": "x",
          "type": "uint8"
        },
        {
          "internalType": "uint8",
          "name": "y",
          "type": "uint8"
        },
        {
          "internalType": "uint8",
          "name": "color",
          "type": "uint8"
        }
      ],
      "name": "draw",
      "outputs": [],
      "stateMutability": "nonpayable",
      "type": "function"
    },
    {
      "inputs": [],
      "name": "externalNullifier",
      "outputs": [
        {
          "internalType": "uint256",
          "name": "",
          "type": "uint256"
        }
      ],
      "stateMutability": "view",
      "type": "function"
    },
    {
      "inputs": [],
      "name": "getCurrentBlockInfo",
      "outputs": [
        {
          "internalType": "uint256",
          "name": "",
          "type": "uint256"
        },
        {
          "internalType": "uint256",
          "name": "",
          "type": "uint256"
        }
      ],
      "stateMutability": "view",
      "type": "function"
    }
  ],
  "bytecode": "0x60c0604052600160a0908152503480156200001957600080fd5b5060405162000d4a38038062000d4a83398181016040528101906200003f91906200032d565b8273ffffffffffffffffffffffffffffffffffffffff1660808173ffffffffffffffffffffffffffffffffffffffff1681525050620000d8620000a9836040516020016200008e919062000414565b604051602081830303815290604052620000e860201b60201c565b82604051602001620000bd9291906200045c565b604051602081830303815290604052620000e860201b60201c565b61032281905550505050620004ee565b6000600882604051602001620000ff9190620004d5565b6040516020818303038152906040528051906020012060001c901c9050919050565b6000604051905090565b600080fd5b600080fd5b600073ffffffffffffffffffffffffffffffffffffffff82169050919050565b6000620001628262000135565b9050919050565b6000620001768262000155565b9050919050565b620001888162000169565b81146200019457600080fd5b50565b600081519050620001a8816200017d565b92915050565b600080fd5b600080fd5b6000601f19601f8301169050919050565b7f4e487b7100000000000000000000000000000000000000000000000000000000600052604160045260246000fd5b6200020382620001b8565b810181811067ffffffffffffffff82111715620002255762000224620001c9565b5b80604052505050565b60006200023a62000121565b9050620002488282620001f8565b919050565b600067ffffffffffffffff8211156200026b576200026a620001c9565b5b6200027682620001b8565b9050602081019050919050565b60005b83811015620002a357808201518184015260208101905062000286565b60008484015250505050565b6000620002c6620002c0846200024d565b6200022e565b905082815260208101848484011115620002e557620002e4620001b3565b5b620002f284828562000283565b509392505050565b600082601f830112620003125762000311620001ae565b5b815162000324848260208601620002af565b91505092915050565b6000806000606084860312156200034957620003486200012b565b5b6000620003598682870162000197565b935050602084015167ffffffffffffffff8111156200037d576200037c62000130565b5b6200038b86828701620002fa565b925050604084015167ffffffffffffffff811115620003af57620003ae62000130565b5b620003bd86828701620002fa565b9150509250925092565b600081519050919050565b600081905092915050565b6000620003ea82620003c7565b620003f68185620003d2565b93506200040881856020860162000283565b80840191505092915050565b6000620004228284620003dd565b915081905092915050565b6000819050919050565b6000819050919050565b6200045662000450826200042d565b62000437565b82525050565b60006200046a828562000441565b6020820191506200047c8284620003dd565b91508190509392505050565b600081519050919050565b600081905092915050565b6000620004ab8262000488565b620004b7818562000493565b9350620004c981856020860162000283565b80840191505092915050565b6000620004e382846200049e565b915081905092915050565b60805160a05161083662000514600039600061020b015260006101ce01526108366000f3fe608060405234801561001057600080fd5b50600436106100575760003560e01c806370bb640f1461005c5780638a19c8bc1461007a5780639b1324fe14610098578063ae081787146100b4578063c99cee2f146100e4575b600080fd5b610064610103565b60405161007191906103c7565b60405180910390f35b61008261010a565b60405161008f91906103c7565b60405180910390f35b6100b260048036038101906100ad91906104d1565b610111565b005b6100ce60048036038101906100c99190610577565b61031f565b6040516100db91906105c6565b60405180910390f35b6100ec61035e565b6040516100fa9291906105e1565b60405180910390f35b6103225481565b6103215481565b6000605a436101209190610639565b90508061032154146101355780610321819055505b600080878152602001908152602001600020600061032154815260200190815260200160002060009054906101000a900460ff16156101a0576040517f5d904cb200000000000000000000000000000000000000000000000000000000815260040160405180910390fd5b60006101ca896040516020016101b691906106b2565b604051602081830303815290604052610377565b90507f000000000000000000000000000000000000000000000000000000000000000073ffffffffffffffffffffffffffffffffffffffff16633bc778e3897f0000000000000000000000000000000000000000000000000000000000000000848b610322548c6040518763ffffffff1660e01b8152600401610252969594939291906106e7565b600060405180830381600087803b15801561026c57600080fd5b505af1158015610280573d6000803e3d6000fd5b505050506001600080898152602001908152602001600020600061032154815260200190815260200160002060006101000a81548160ff0219169083151502179055508260018660ff1660c881106102db576102da610749565b5b600402018560ff16606481106102f4576102f3610749565b5b602091828204019190066101000a81548160ff021916908360ff160217905550505050505050505050565b60018260c8811061032f57600080fd5b60040201816064811061034157600080fd5b60209182820401919006915091509054906101000a900460ff1681565b6000806000439050600042905081819350935050509091565b600060088260405160200161038c91906107e9565b6040516020818303038152906040528051906020012060001c901c9050919050565b6000819050919050565b6103c1816103ae565b82525050565b60006020820190506103dc60008301846103b8565b92915050565b600080fd5b600073ffffffffffffffffffffffffffffffffffffffff82169050919050565b6000610412826103e7565b9050919050565b61042281610407565b811461042d57600080fd5b50565b60008135905061043f81610419565b92915050565b61044e816103ae565b811461045957600080fd5b50565b60008135905061046b81610445565b92915050565b600080fd5b60008190508260206008028201111561049257610491610471565b5b92915050565b600060ff82169050919050565b6104ae81610498565b81146104b957600080fd5b50565b6000813590506104cb816104a5565b92915050565b60008060008060008060006101c0888a0312156104f1576104f06103e2565b5b60006104ff8a828b01610430565b97505060206105108a828b0161045c565b96505060406105218a828b0161045c565b95505060606105328a828b01610476565b9450506101606105448a828b016104bc565b9350506101806105568a828b016104bc565b9250506101a06105688a828b016104bc565b91505092959891949750929550565b6000806040838503121561058e5761058d6103e2565b5b600061059c8582860161045c565b92505060206105ad8582860161045c565b9150509250929050565b6105c081610498565b82525050565b60006020820190506105db60008301846105b7565b92915050565b60006040820190506105f660008301856103b8565b61060360208301846103b8565b9392505050565b7f4e487b7100000000000000000000000000000000000000000000000000000000600052601260045260246000fd5b6000610644826103ae565b915061064f836103ae565b92508261065f5761065e61060a565b5b828204905092915050565b60008160601b9050919050565b60006106828261066a565b9050919050565b600061069482610677565b9050919050565b6106ac6106a782610407565b610689565b82525050565b60006106be828461069b565b60148201915081905092915050565b82818337505050565b6106e361010083836106cd565b5050565b60006101a0820190506106fd60008301896103b8565b61070a60208301886103b8565b61071760408301876103b8565b61072460608301866103b8565b61073160808301856103b8565b61073e60a08301846106d6565b979650505050505050565b7f4e487b7100000000000000000000000000000000000000000000000000000000600052603260045260246000fd5b600081519050919050565b600081905092915050565b60005b838110156107ac578082015181840152602081019050610791565b60008484015250505050565b60006107c382610778565b6107cd8185610783565b93506107dd81856020860161078e565b80840191505092915050565b60006107f582846107b8565b91508190509291505056fea2646970667358221220eaae3896f549065d273fa695ce325c14049adccf4cfde50dddf66fdbc36ec02264736f6c63430008130033",
  "linkReferences": {},
  "deployedLinkReferences": {}
}