{
  "_format": "hh-sol-artifact-1",
  "contractName": "SuperPlace",
  "sourceName": "contracts/SuperPlace.sol",
  "abi": [
    {
      "inputs": [
        {
          "internalType": "contract IWorldIDGroups",
          "name": "_worldId",
          "type": "address"
        },
        {
          "internalType": "string",
          "name": "_appId",
          "type": "string"
        },
        {
          "internalType": "string",
          "name": "_actionId",
          "type": "string"
        }
      ],
      "stateMutability": "nonpayable",
      "type": "constructor"
    },
    {
      "inputs": [],
      "name": "InvalidNullifier",
      "type": "error"
    },
    {
      "anonymous": false,
      "inputs": [
        {
          "indexed": false,
          "internalType": "address",
          "name": "user",
          "type": "address"
        },
        {
          "indexed": false,
          "internalType": "uint256",
          "name": "x",
          "type": "uint256"
        },
        {
          "indexed": false,
          "internalType": "uint256",
          "name": "y",
          "type": "uint256"
        },
        {
          "indexed": false,
          "internalType": "uint256",
          "name": "color",
          "type": "uint256"
        }
      ],
      "name": "Placed",
      "type": "event"
    },
    {
      "anonymous": false,
      "inputs": [
        {
          "indexed": false,
          "internalType": "uint32",
          "name": "origin",
          "type": "uint32"
        },
        {
          "indexed": false,
          "internalType": "address",
          "name": "sender",
          "type": "address"
        },
        {
          "indexed": false,
          "internalType": "bytes",
          "name": "body",
          "type": "bytes"
        }
      ],
      "name": "Received",
      "type": "event"
    },
    {
      "inputs": [
        {
          "internalType": "uint256",
          "name": "",
          "type": "uint256"
        },
        {
          "internalType": "uint256",
          "name": "",
          "type": "uint256"
        }
      ],
      "name": "canvas",
      "outputs": [
        {
          "internalType": "uint8",
          "name": "",
          "type": "uint8"
        }
      ],
      "stateMutability": "view",
      "type": "function"
    },
    {
      "inputs": [],
      "name": "currentRound",
      "outputs": [
        {
          "internalType": "uint256",
          "name": "",
          "type": "uint256"
        }
      ],
      "stateMutability": "view",
      "type": "function"
    },
    {
      "inputs": [],
      "name": "externalNullifier",
      "outputs": [
        {
          "internalType": "uint256",
          "name": "",
          "type": "uint256"
        }
      ],
      "stateMutability": "view",
      "type": "function"
    },
    {
      "inputs": [],
      "name": "getCurrentBlockInfo",
      "outputs": [
        {
          "internalType": "uint256",
          "name": "",
          "type": "uint256"
        },
        {
          "internalType": "uint256",
          "name": "",
          "type": "uint256"
        }
      ],
      "stateMutability": "view",
      "type": "function"
    },
    {
      "inputs": [
        {
          "internalType": "uint32",
          "name": "_origin",
          "type": "uint32"
        },
        {
          "internalType": "bytes32",
          "name": "_sender",
          "type": "bytes32"
        },
        {
          "internalType": "bytes",
          "name": "_body",
          "type": "bytes"
        }
      ],
      "name": "hyperlanePlace",
      "outputs": [],
      "stateMutability": "nonpayable",
      "type": "function"
    },
    {
      "inputs": [],
      "name": "mailbox",
      "outputs": [
        {
          "internalType": "address",
          "name": "",
          "type": "address"
        }
      ],
      "stateMutability": "view",
      "type": "function"
    },
    {
      "inputs": [
        {
          "components": [
            {
              "internalType": "address",
              "name": "signal",
              "type": "address"
            },
            {
              "internalType": "uint256",
              "name": "root",
              "type": "uint256"
            },
            {
              "internalType": "uint256",
              "name": "nullifierHash",
              "type": "uint256"
            },
            {
              "internalType": "uint256[8]",
              "name": "proof",
              "type": "uint256[8]"
            },
            {
              "internalType": "uint8",
              "name": "x",
              "type": "uint8"
            },
            {
              "internalType": "uint8",
              "name": "y",
              "type": "uint8"
            },
            {
              "internalType": "uint8",
              "name": "color",
              "type": "uint8"
            }
          ],
          "internalType": "struct PlaceStruct",
          "name": "_place",
          "type": "tuple"
        }
      ],
      "name": "place",
      "outputs": [],
      "stateMutability": "nonpayable",
      "type": "function"
    }
  ],
  "bytecode": "0x60c0604052600160a09081525073cc737a94fecaec165abcf12ded095bb13f03768561032360006101000a81548173ffffffffffffffffffffffffffffffffffffffff021916908373ffffffffffffffffffffffffffffffffffffffff1602179055503480156200006f57600080fd5b506040516200166338038062001663833981810160405281019062000095919062000383565b8273ffffffffffffffffffffffffffffffffffffffff1660808173ffffffffffffffffffffffffffffffffffffffff16815250506200012e620000ff83604051602001620000e491906200046a565b6040516020818303038152906040526200013e60201b60201c565b8260405160200162000113929190620004b2565b6040516020818303038152906040526200013e60201b60201c565b6103228190555050505062000544565b60006008826040516020016200015591906200052b565b6040516020818303038152906040528051906020012060001c901c9050919050565b6000604051905090565b600080fd5b600080fd5b600073ffffffffffffffffffffffffffffffffffffffff82169050919050565b6000620001b8826200018b565b9050919050565b6000620001cc82620001ab565b9050919050565b620001de81620001bf565b8114620001ea57600080fd5b50565b600081519050620001fe81620001d3565b92915050565b600080fd5b600080fd5b6000601f19601f8301169050919050565b7f4e487b7100000000000000000000000000000000000000000000000000000000600052604160045260246000fd5b62000259826200020e565b810181811067ffffffffffffffff821117156200027b576200027a6200021f565b5b80604052505050565b60006200029062000177565b90506200029e82826200024e565b919050565b600067ffffffffffffffff821115620002c157620002c06200021f565b5b620002cc826200020e565b9050602081019050919050565b60005b83811015620002f9578082015181840152602081019050620002dc565b60008484015250505050565b60006200031c6200031684620002a3565b62000284565b9050828152602081018484840111156200033b576200033a62000209565b5b62000348848285620002d9565b509392505050565b600082601f83011262000368576200036762000204565b5b81516200037a84826020860162000305565b91505092915050565b6000806000606084860312156200039f576200039e62000181565b5b6000620003af86828701620001ed565b935050602084015167ffffffffffffffff811115620003d357620003d262000186565b5b620003e18682870162000350565b925050604084015167ffffffffffffffff81111562000405576200040462000186565b5b620004138682870162000350565b9150509250925092565b600081519050919050565b600081905092915050565b600062000440826200041d565b6200044c818562000428565b93506200045e818560208601620002d9565b80840191505092915050565b600062000478828462000433565b915081905092915050565b6000819050919050565b6000819050919050565b620004ac620004a68262000483565b6200048d565b82525050565b6000620004c0828562000497565b602082019150620004d2828462000433565b91508190509392505050565b600081519050919050565b600081905092915050565b60006200050182620004de565b6200050d8185620004e9565b93506200051f818560208601620002d9565b80840191505092915050565b6000620005398284620004f4565b915081905092915050565b60805160a0516110f96200056a60003960006103e6015260006103a501526110f96000f3fe608060405234801561001057600080fd5b506004361061007d5760003560e01c8063ae0817871161005b578063ae081787146100da578063c99cee2f1461010a578063d5438eae14610129578063e60d9d7f146101475761007d565b8063558bedb41461008257806370bb640f1461009e5780638a19c8bc146100bc575b600080fd5b61009c6004803603810190610097919061075b565b610163565b005b6100a661022e565b6040516100b391906107e3565b60405180910390f35b6100c4610235565b6040516100d191906107e3565b60405180910390f35b6100f460048036038101906100ef919061082a565b61023c565b6040516101019190610886565b60405180910390f35b61011261027b565b6040516101209291906108a1565b60405180910390f35b610131610294565b60405161013e919061090b565b60405180910390f35b610161600480360381019061015c919061094b565b6102bb565b005b61032360009054906101000a900473ffffffffffffffffffffffffffffffffffffffff1673ffffffffffffffffffffffffffffffffffffffff163373ffffffffffffffffffffffffffffffffffffffff16146101be57600080fd5b60006101c9836102d7565b90507fbb8068a80970e39c505e930e385376bf8649fce97bd3eb8f4c4dfffc5e9b80338482846040516101fe93929190610a07565b60405180910390a160008280602001905181019061021c9190610c25565b9050610227816102e4565b5050505050565b6103225481565b6103215481565b60018260c8811061024c57600080fd5b60040201816064811061025e57600080fd5b60209182820401919006915091509054906101000a900460ff1681565b6000806000439050600042905081819350935050509091565b61032360009054906101000a900473ffffffffffffffffffffffffffffffffffffffff1681565b6102d4818036038101906102cf9190610dc0565b6102e4565b50565b60008160001c9050919050565b4260b4610321546102f59190610e1d565b10156103045742610321819055505b60008082604001518152602001908152602001600020600061032154815260200190815260200160002060009054906101000a900460ff1615610373576040517f5d904cb200000000000000000000000000000000000000000000000000000000815260040160405180910390fd5b60006103a1826000015160405160200161038d9190610e99565b604051602081830303815290604052610558565b90507f000000000000000000000000000000000000000000000000000000000000000073ffffffffffffffffffffffffffffffffffffffff16633bc778e383602001517f00000000000000000000000000000000000000000000000000000000000000008486604001516103225488606001516040518763ffffffff1660e01b815260040161043596959493929190610f5f565b600060405180830381600087803b15801561044f57600080fd5b505af1158015610463573d6000803e3d6000fd5b50505050600160008084604001518152602001908152602001600020600061032154815260200190815260200160002060006101000a81548160ff0219169083151502179055508160c001516001836080015160ff1660c881106104ca576104c9610fc1565b5b600402018360a0015160ff16606481106104e7576104e6610fc1565b5b602091828204019190066101000a81548160ff021916908360ff1602179055507fd2f97578c9056eff6ed20de6f785af4dd87c4b01727a61dc41875ba174632ee0826000015183608001518460a001518560c0015160405161054c949392919061102b565b60405180910390a15050565b600060088260405160200161056d91906110ac565b6040516020818303038152906040528051906020012060001c901c9050919050565b6000604051905090565b600080fd5b600080fd5b600063ffffffff82169050919050565b6105bc816105a3565b81146105c757600080fd5b50565b6000813590506105d9816105b3565b92915050565b6000819050919050565b6105f2816105df565b81146105fd57600080fd5b50565b60008135905061060f816105e9565b92915050565b600080fd5b600080fd5b6000601f19601f8301169050919050565b7f4e487b7100000000000000000000000000000000000000000000000000000000600052604160045260246000fd5b6106688261061f565b810181811067ffffffffffffffff8211171561068757610686610630565b5b80604052505050565b600061069a61058f565b90506106a6828261065f565b919050565b600067ffffffffffffffff8211156106c6576106c5610630565b5b6106cf8261061f565b9050602081019050919050565b82818337600083830152505050565b60006106fe6106f9846106ab565b610690565b90508281526020810184848401111561071a5761071961061a565b5b6107258482856106dc565b509392505050565b600082601f83011261074257610741610615565b5b81356107528482602086016106eb565b91505092915050565b60008060006060848603121561077457610773610599565b5b6000610782868287016105ca565b935050602061079386828701610600565b925050604084013567ffffffffffffffff8111156107b4576107b361059e565b5b6107c08682870161072d565b9150509250925092565b6000819050919050565b6107dd816107ca565b82525050565b60006020820190506107f860008301846107d4565b92915050565b610807816107ca565b811461081257600080fd5b50565b600081359050610824816107fe565b92915050565b6000806040838503121561084157610840610599565b5b600061084f85828601610815565b925050602061086085828601610815565b9150509250929050565b600060ff82169050919050565b6108808161086a565b82525050565b600060208201905061089b6000830184610877565b92915050565b60006040820190506108b660008301856107d4565b6108c360208301846107d4565b9392505050565b600073ffffffffffffffffffffffffffffffffffffffff82169050919050565b60006108f5826108ca565b9050919050565b610905816108ea565b82525050565b600060208201905061092060008301846108fc565b92915050565b600080fd5b60006101c0828403121561094257610941610926565b5b81905092915050565b60006101c0828403121561096257610961610599565b5b60006109708482850161092b565b91505092915050565b610982816105a3565b82525050565b600081519050919050565b600082825260208201905092915050565b60005b838110156109c25780820151818401526020810190506109a7565b60008484015250505050565b60006109d982610988565b6109e38185610993565b93506109f38185602086016109a4565b6109fc8161061f565b840191505092915050565b6000606082019050610a1c6000830186610979565b610a2960208301856108fc565b8181036040830152610a3b81846109ce565b9050949350505050565b600080fd5b610a53816108ea565b8114610a5e57600080fd5b50565b600081519050610a7081610a4a565b92915050565b600081519050610a85816107fe565b92915050565b600067ffffffffffffffff821115610aa657610aa5610630565b5b602082029050919050565b600080fd5b6000610ac9610ac484610a8b565b610690565b90508060208402830185811115610ae357610ae2610ab1565b5b835b81811015610b0c5780610af88882610a76565b845260208401935050602081019050610ae5565b5050509392505050565b600082601f830112610b2b57610b2a610615565b5b6008610b38848285610ab6565b91505092915050565b610b4a8161086a565b8114610b5557600080fd5b50565b600081519050610b6781610b41565b92915050565b60006101c08284031215610b8457610b83610a45565b5b610b8e60e0610690565b90506000610b9e84828501610a61565b6000830152506020610bb284828501610a76565b6020830152506040610bc684828501610a76565b6040830152506060610bda84828501610b16565b606083015250610160610bef84828501610b58565b608083015250610180610c0484828501610b58565b60a0830152506101a0610c1984828501610b58565b60c08301525092915050565b60006101c08284031215610c3c57610c3b610599565b5b6000610c4a84828501610b6d565b91505092915050565b600081359050610c6281610a4a565b92915050565b6000610c7b610c7684610a8b565b610690565b90508060208402830185811115610c9557610c94610ab1565b5b835b81811015610cbe5780610caa8882610815565b845260208401935050602081019050610c97565b5050509392505050565b600082601f830112610cdd57610cdc610615565b5b6008610cea848285610c68565b91505092915050565b600081359050610d0281610b41565b92915050565b60006101c08284031215610d1f57610d1e610a45565b5b610d2960e0610690565b90506000610d3984828501610c53565b6000830152506020610d4d84828501610815565b6020830152506040610d6184828501610815565b6040830152506060610d7584828501610cc8565b606083015250610160610d8a84828501610cf3565b608083015250610180610d9f84828501610cf3565b60a0830152506101a0610db484828501610cf3565b60c08301525092915050565b60006101c08284031215610dd757610dd6610599565b5b6000610de584828501610d08565b91505092915050565b7f4e487b7100000000000000000000000000000000000000000000000000000000600052601160045260246000fd5b6000610e28826107ca565b9150610e33836107ca565b9250828201905080821115610e4b57610e4a610dee565b5b92915050565b60008160601b9050919050565b6000610e6982610e51565b9050919050565b6000610e7b82610e5e565b9050919050565b610e93610e8e826108ea565b610e70565b82525050565b6000610ea58284610e82565b60148201915081905092915050565b600060089050919050565b600081905092915050565b6000819050919050565b610edd816107ca565b82525050565b6000610eef8383610ed4565b60208301905092915050565b6000602082019050919050565b610f1181610eb4565b610f1b8184610ebf565b9250610f2682610eca565b8060005b83811015610f57578151610f3e8782610ee3565b9650610f4983610efb565b925050600181019050610f2a565b505050505050565b60006101a082019050610f7560008301896107d4565b610f8260208301886107d4565b610f8f60408301876107d4565b610f9c60608301866107d4565b610fa960808301856107d4565b610fb660a0830184610f08565b979650505050505050565b7f4e487b7100000000000000000000000000000000000000000000000000000000600052603260045260246000fd5b6000819050919050565b600061101561101061100b8461086a565b610ff0565b6107ca565b9050919050565b61102581610ffa565b82525050565b600060808201905061104060008301876108fc565b61104d602083018661101c565b61105a604083018561101c565b611067606083018461101c565b95945050505050565b600081905092915050565b600061108682610988565b6110908185611070565b93506110a08185602086016109a4565b80840191505092915050565b60006110b8828461107b565b91508190509291505056fea264697066735822122091b9d230c792ce60ccc3ec196e4a1d969f8158e018e0c1b38fbd740e65ed069e64736f6c63430008130033",
  "linkReferences": {},
  "deployedLinkReferences": {}
}